:020000040800F2
:10000000F00500200101000825220008291E000833
:1000100075210008750A00089D25000800000000F1
:10002000000000000000000000000000292200087D
:10003000770A000800000000272200082B22000891
:100040001B0100081B0100081B0100081B01000820
:100050001B0100081B010008790A00087F0A00083C
:100060001B0100081B0100081B0100081B01000800
:100070001B0100081B0100081B0100081B010008F0
:100080001B0100081B0100081B0100081B010008E0
:100090001B0100081B0100081B0100081B010008D0
:1000A0001B0100081B0100081B0100081B010008C0
:1000B0001B0100081B010008C52200081B010008E5
:1000C0001B0100081B0100081B0100081B010008A0
:1000D0001B01000885250008912500081B01000868
:1000E0001B0100081B0100081B010008DFF80CD0F1
:1000F00000F058FA0048004745290008F0050020A4
:100100000648804706480047FEE7FEE7FEE7FEE7B1
:10011000FEE7FEE7FEE7FEE7FEE7FEE77D220008DA
:10012000ED000008202A04DB203A21FA02F0002129
:10013000704721FA02F3D040C2F1200291400843F7
:1001400019467047D2B201E000F8012B491EFBD2DC
:1001500070470022F6E710B513460A4604461946D2
:10016000FFF7F0FF204610BD2DE9F04D81EA0304B2
:1001700004F0004B21F0004514464FF0000A23F034
:10018000004150EA050220D054EA01021DD0C5F317
:100190000A570246C5F31303C1F31300C1F30A560D
:1001A00040F4801543F48013A7EB0608101BD646D5
:1001B00008F2FD3873EB050002D308F1010801E0F5
:1001C00092185B41B8F1000F03DA00200146BDE848
:1001D000F08D00204FF48011064684460EE0171B78
:1001E00073EB050705D3121B63EB050306434CEACB
:1001F000010C49084FEA300092185B4150EA0107B0
:10020000EDD152EA030012D082EA040083EA05012C
:10021000084305D0101BAB4106D20122002306E0A3
:1002200000224FF0004302E06FF0010253101AEB7E
:1002300006004CEB085110EB0A0041EB0B01BDE846
:10024000F04D00F098B8C10F80EAE0700844CA078A
:100250009623002100F061B800F0004220F0004039
:10026000C10DC0F3160040F400007F2901DA002020
:100270007047962903DCC1F19601C84001E0963928
:100280008840002AF4D04042704701F0004330B467
:1002900021F0004150EA010206D00A0DA2F5607279
:1002A000C1F31301002A02DC30BC00207047440F68
:1002B00044EAC104C100E01830BC00EBC25000F0B9
:1002C00023B830B50B46014600202022012409E066
:1002D00021FA02F59D4205D303FA02F5491B04FAFF
:1002E00002F52844151EA2F10102F1DC30BD7CB5F7
:1002F0000023CDE900330546684600F090F96946D1
:10030000284602F071F97CBD0029A8BF7047401C47
:10031000490008BF20F00100704710B4B0FA80FC1B
:1003200000FA0CF050EA010404BF10BC704749B158
:10033000CCF1200421FA04F411FA0CF118BF0121C8
:1003400021430843A3EB0C01CB1D4FEA00614FEAA8
:10035000102042BF002010BC704700EBC350104477
:100360000029A4BF10BC7047401C490008BF20F002
:10037000010010BC704710B5141E73F1000408DAB8
:10038000401C41F1000192185B411A4301D120F059
:10039000010010BD2DE9F04D92469B4611B1B1FA16
:1003A00081F202E0B0FA80F22032904600F00CF9BF
:1003B00004460F4640EA0A0041EA0B0153465A46FA
:1003C000084313D0114653EA010019D0C8F1400286
:1003D0005046FFF7A7FE05460E4650465946424690
:1003E00000F0F2F8084305D0012004E02046394629
:1003F000BDE8F08D0020054346EAE0762C43374304
:100400000A986305E40AA0EB08000022FD0A44EA0A
:1004100047540A3002D500200146E9E701051019CA
:100420006941DDE9084500196941BDE8F04DA2E7E1
:100430002DE9FE4F81EA030404F0004421F000415D
:1004400000944FF0000B23F0004350EA01045ED00B
:1004500052EA03045BD0C3F30A54C1F30A552C4497
:10046000A4F2F3340194A0FB0254C1F3130141F44C
:100470008011C3F3130343F4801301FB024400FB18
:10048000034E840A970A44EA815447EA8357A4FB3F
:10049000076802958D0A05FB07854FEA932C04FB3C
:1004A0000C542705029D4FEA065847EA1637B5EB6C
:1004B00008056EEB070C870E920E47EA811742EA99
:1004C0008312A7FB0201B6EB0B0164EB00042B0DBA
:1004D00043EA0C335E1844EB1C50DA465146E7FB06
:1004E0000201C5F313044FEA0B3343EA14534FEAF6
:1004F0000432019C43EA0603A4F10C040294009C1C
:10050000CDE900B4FFF746FF03B0BDE8F08F00204F
:100510000146F9E770B521F0004303430CD0C1F365
:100520000A550024D5EB040564EB0403D617AD1A75
:10053000B34102DB0020014670BD201841EB02519F
:1005400070BD000030B5041E71F1000404DB4FF0F3
:100550000044404264EB0101141E73F1000405DB0A
:100560001C464FF00043524263EB04038B4208BF2A
:10057000824230BD30B5041E71F1000404DB4FF03F
:100580000044404264EB0101141E73F1000405DBDA
:100590001C464FF00043524263EB0403994208BFEC
:1005A000904230BD064C074D06E0E06840F0010384
:1005B00094E8070098471034AC42F6D3FFF79AFD51
:1005C0003C2C00085C2C0008202A04DB203A00FAAE
:1005D00002F1002070479140C2F1200320FA03F39A
:1005E00019439040704700000FB4002300B589B054
:1005F0000CA900910B996FF00042CB601E4B069343
:100600001E4B07930423CDE901321D4A089202468E
:100610006B46002000F0D0F809B05DF814FB70B50F
:1006200086B006464FF0FF300091CDE90101002071
:1006300015460C4604903246694604A8FFF7D4FFDD
:1006400002460498211825B108B1084600E020466A
:100650002860049800280DD0002A02DD0098884206
:1006600008D0081B0094CDE901043246694604A86D
:10067000FFF7BAFF06B070BDF10900080F0A0008C5
:1006800085060008C0B24FF4F05100F0D3B9000065
:100690002DE9FF4F087883B09946FF2805D0491C03
:1006A0002D2804D00024002008E000200BE00124C5
:1006B000F9E700EB800003EB4000491C0B78FF2BAF
:1006C000F7D104B1404200230293147819461D4625
:1006D0002D2C01D02B2C04D1521C2D2C13D00024F6
:1006E0000294AA461478FF2C0FD00A25A3FB0578A4
:1006F00001FB05814FF0000C03FB0C11521CE319A8
:100700004AEB0101EEE70124EAE7814453EA0100E4
:1007100002D019F5C87F06DA03980021C0E900115C
:1007200007B0BDE8F08F0025AE4E2F46DFF8B88247
:10073000184600F093F9CDE90001B9F1000002DAA2
:10074000C9F1000400E004460023A74A1AEB030B9A
:1007500042EB045A12E0E00707D02A4633463846F7
:100760004146FFF765FE074688462A46334610464F
:100770001946FFF75DFE05460E466410002CEAD1CF
:10078000DDE90001B9F1000F5A46534606DAFFF7DA
:10079000EBFC3A464346FFF7E7FC05E0FFF748FE6F
:1007A0003A464346FFF744FE029A0AB181F00041FF
:1007B000039AC2E90001B3E72DE9FF4F1F468DB050
:1007C000D7E901464FF0FF382E2045464FF000098B
:1007D0000B90B9696D1C0E988847396A8246884724
:1007E0000028F6D1BAF1FF3F0AD024F4D064002EDD
:1007F00011DDBAF12B0F08D0BAF12D0F0BD102E0A9
:10080000404611B08DE744F48064B9696D1C0E98C0
:1008100088478246761E6946600501D52D2000E096
:100820002B208DF8000001F1010B0DF1200809E0EB
:10083000B9696D1C0E98884782460F9844F400747D
:10084000761E0560002E02DDBAF1300FF0D00B9954
:100850008A453ED144F0800406E00F99681CA9F156
:10086000010944F400740860B9696D1C761E0E9885
:10087000884782463028F0D02BE00B998A4505D175
:10088000200603D444F08004761E18E0504601F0A0
:1008900027FF08B30DF11301761E44F400748B4555
:1008A00008D2AAF130000BF8010B200607D5A9F1F8
:1008B000010003E0200602D409F101008146A005F1
:1008C00002D50F99681C0860B9696D1C0E9888479D
:1008D0008246002ED1DC53E0002E51DDBAF1650FC7
:1008E00002D0BAF1450F4BD1A00549D5B9696D1CAD
:1008F00024F44074761E0E9888478246002E0CDD44
:100900002B2804D0BAF12D0F07D144F48074B969B3
:100910006D1C0E9888478246761EE00501D52D2174
:1009200000E02B2108F8011BCDF82C8021E00DF10F
:100930002901761E44F4007488450CD2AAF13000D7
:1009400010F0FF0088F8000002D10B99884509D902
:1009500008F1010806E0E00501D5244801E042F273
:100960000F708146B9696D1C0E98884782460F98B2
:100970000560002E04DD504601F0B2FE0028D6D1FD
:10098000F9690E988847FF208BF8000088F800006E
:100990000020069007904B466A4608A906A8FFF774
:1009A00077FEA00502D46FF001002AE714F0240FAF
:1009B0000AD0E00714D1DDE906123868031D3B6058
:1009C0000068C0E900120BE0DDE90601FFF75DFCFD
:1009D0000146E00704D13868021D3A6000680160F2
:1009E00028460EE7000014400000F03FF1D8FFFF5A
:1009F000426842B1016811F8013B23B1521EC0E9BF
:100A00000012184670470121C160881E7047426875
:100A10005AB1C368016843B983688B4205D0491E47
:100A2000521CC0E90012002070474FF0FF307047A1
:100A3000002070477F2801D9002208E0064A02EB17
:100A40005002C007127800D1120902F00F020120F3
:100A50009040084070470000FC2B00080EB540F2A3
:100A6000334202920022CDE900221346FFF792FCA6
:100A700003B000BDFEE77047012000F0A1B80220DE
:100A800000F09EB810B590F821100024022903D080
:100A90000421816301243DE001680A6822F00E020E
:100AA0000A6001680A6822F001020A601A4A0168B5
:100AB000914201D1012121E0174A1432914201D122
:100AC00010211BE0144A2832914201D1891515E00A
:100AD000114A3C32914201D189140FE00E4A503242
:100AE000914202D14FF4803108E00B4A64329142C6
:100AF00002D14FF4801101E04FF08071064A083AAC
:100B00005160012180F82110002180F82010416BF4
:100B100001B18847204610BD0800024070B5044668
:100B200000F054F90546601C02D0044800780444E3
:100B300000F04CF9401BA042FAD370BD48000020E1
:100B400070B50025194A1A4E1A4C02281AD00128ED
:100B50002BD10121104600F02FF9012825D1606921
:100B60000068406A206364281FD923695B1C2361E5
:100B700030684562E268BDE870400D480EA1C030A3
:100B800001F00EBD0221104600F016F901280CD12B
:100B900060690068406A2063642806D9E268521CD4
:100BA000E260306845622369E5E770BD000C0140F2
:100BB00020010020000000207225646C25643B00A9
:100BC000044910B50A68024202D00860FFF7B8FF76
:100BD00010BD0000140401402DE9F84FDFF8B89172
:100BE000002409F1040A0AF1040B23460F270BF134
:100BF000040EC9E00125A5402A40AA427DD1674ED6
:100C0000D1F804C0ACEB0608B44532D014DCBCF11A
:100C1000030F3AD009DCBCF1000F2AD0BCF1010F60
:100C20001CD0BCF1020F31D11DE0BCF1110F17D067
:100C3000BCF1120F2AD119E0B8F5881F19D006DCD3
:100C4000B8F5803F15D0B8F5801F1FD111E0B8F579
:100C5000001F0ED0B8F5041F18D10AE0CB6815E0CC
:100C6000CB681B1D12E0CB6808330FE0CB680C3358
:100C70000CE08B682BB1012B4FF0080303D04561CA
:100C800004E0042302E0056100E00023FF2A01D80C
:100C9000064601E000F104064FEA840501D9A5F1FA
:100CA0002005D6F8008007FA05FC28EA0C0803FAAC
:100CB00005F548EA0508C6F800804D68ED0062D5E4
:100CC000374DAE6946F00106AE61AD6924F003060A
:100CD00005F001050095334D06EB050CDCF80850D6
:100CE000A607360F07FA06F825EA0805DFF8B880E8
:100CF000404503D14FF0000817E044E0DFF8AC8036
:100D0000404502D14FF001080FE0DFF8A4804045D4
:100D100002D14FF0020808E0DFF89880404502D188
:100D20004FF0030801E04FF0040808FA06F848EA1B
:100D30000508CCF808804D68D9F80060ED034D46F1
:100D400001D5164300E096432E604D68DAF8006046
:100D5000AD03554601D5164300E096432E604D681D
:100D6000DBF80060ED025D4601D5164300E09643D6
:100D70002E604D68DEF80060AD02754601D5164361
:100D800000E096432E60641C0D682A46E5407FF41F
:100D900031AFBDE8F88F00000004014000001110E1
:100DA000001002400000014000080140000C01401A
:100DB00000100140001401408068084000D001206C
:100DC00070470AB1016170470904FBE70148806878
:100DD000704700004800002070B504001BD094F854
:100DE0003D00002520B984F83C50204600F044F92D
:100DF000242084F83D002068016821F00101016091
:100E000000F0B4FA4D4A6168914201D84C4900E0C3
:100E10004C49884201D2012070BD4B492368B0FB88
:100E2000F1F15E6826F03F060E435E606368934210
:100E300006D94FF4967359434FF47A73B1FBF3F12B
:100E40002368491C1E6A26F03F0631431962616817
:100E5000914210D84900401EB0FBF1F2521CC2F37F
:100E60000B02042A01D2042022E0B0FBF1F0401C66
:100E7000C0F30B001CE0A368F3B301EBC10202EB6B
:100E80000116421EB2FBF6F2521C42F480421205D9
:100E900049D093B301EBC10202EB0111401EB0FB3C
:100EA000F1F0401CC0F30B0040F4804040F40040DF
:100EB0002168CA694CF6FF739A431043C861D4E9AC
:100EC0000701084321680A6822F0C0021043086045
:100ED000D4E9030101432068826848F2FF339A4352
:100EE00011438160D4E9050108432168CA6822F0F2
:100EF000FF021043C86001E00EE016E020680168C0
:100F000041F0010101602564202084F83D00256343
:100F100084F83E50002070BD01EB4106421EB2FB3A
:100F2000F6F2521CB3E70120C2E701EB4101401E7B
:100F3000B0FBF1F0401CC0F30B00B7E7A086010046
:100F400080841E0000093D0040420F002DE9F84F4B
:100F50001F4690468A460446DDF82890FFF736FF84
:100F6000054694F83D0020287FD1192301224049ED
:100F70002046009500F0DAFF002876D194F83C0076
:100F8000012872D0012084F83C0020680168C9075C
:100F900003D1016841F0010101602068016821F47A
:100FA00000610160212084F83D00102084F83E009B
:100FB00000262664C4F824806785608D20852D482E
:100FC000E0622B464A465146204600F045FF90B964
:100FD000206841698069009036E02A4649462046EB
:100FE00001F023F850B1206C042804D12068016876
:100FF00041F4007101600120BDE8F88F606A21684A
:1010000000780861606A401C6062618D491E6185DC
:10101000218D491E89B2218522685369DB435B0714
:101020000BD451B100781061606A401C6062608D21
:10103000401E6085208D401E20852A464946204658
:1010400000F04EFF0028CED1208D0028C5D154F8E5
:101050003D0B016841F400710160202004F81E0975
:10106000E67766770020C7E7FFE70220C4E70000C5
:10107000020010000000FFFF30B585B00021009194
:101080000191029103911E4D03681E4C122103220F
:101090001D48AB4216D1A36943F00803A361A369BD
:1010A000039203F008030493C023CDE9003169469D
:1010B000FFF792FDE06940F40010E061E06900F4A0
:1010C000001019E0114DAB4217D1A36943F008039A
:1010D000A361A369039203F0080304934FF44063F0
:1010E000CDE900316946FFF777FDE06940F4800003
:1010F000E061E06900F48000049005B030BD0000BC
:101100000054004000100240000C01400058004014
:1011100002488168027811448160704748000020CD
:10112000074810B5016841F010010160032000F08C
:1011300075F8002000F006F800F024F8002010BD3B
:101140000020024070B50D4D04464FF47A712878A6
:10115000B1FBF0F00A490968B1FBF0F000F0ECFADD
:1011600048B9102C07D200222146501E00F036F854
:1011700000206C6070BD012070BD000048000020A0
:10118000540000200C4808B5816941F001018161DB
:10119000816901F001010091C16941F08051C16193
:1011A000C06900F0805000900448416821F0E0617F
:1011B00041F00071416008BD001002400000014094
:1011C000002809DB00F01F02012191404009800046
:1011D00000F1E020C0F8001170470000F0B40E4BA1
:1011E0001B680C46C3F30223C3F10705042D00D985
:1011F0000425191D072901D2002300E0DB1E01266A
:1012000006FA05F1491E214099409E40761E16407F
:101210003143F0BC01F0D8B90CED00E0064900F014
:10122000070208684FF6FF03184040EA0220034A0D
:1012300010430860704700000CED00E00000FA0564
:101240002DE9F0470F46050061D0434E306800F0AD
:101250000700B84209D2306820F0070038433060F8
:10126000306800F00700B84251D128683B4C810734
:1012700012D5400703D5606840F4E06060602878CC
:10128000000703D5606840F4605060606068A9683A
:1012900020F0F000084360602878C00728D0686814
:1012A000012810D02168022810D0890700292EDAE1
:1012B000616821F0030101436160FFF787FD80460B
:1012C00041F288390DE021688903EFE78901EDE7F4
:1012D000FFF77CFDA0EB0801494502D90320BDE8DA
:1012E000F0876068696800F00C00B0EB810FEFD107
:1012F000306800F00700B8420BD9306820F00700D2
:1013000038433060306800F00700B84201D0012057
:10131000E5E72878400705D56068E96820F4E060D3
:10132000084360602878000706D56068296920F4C2
:10133000605040EAC100606000F038F86168084A17
:10134000C1F30311515CC8400649086006480068B3
:10135000FFF7F8FE0020C2E7002002400010024024
:10136000E42B0008540000204C00002004480549EC
:1013700000684968044AC1F30221515CC8407047C3
:101380005400002000100240F42B000804480549D6
:1013900000684968044AC1F3C221515CC8407047E3
:1013A0005400002000100240F42B000812A185B068
:1013B0000FC98DE80F0014A0144A0068049051680A
:1013C000134801F00C03042B10D0082B0ED1C1F3ED
:1013D0008343C9031DF803000AD5516804AAC1F369
:1013E0004041515C0A4A5043B0FBF1F005B07047F0
:1013F00008494843FAE70000020304050607080904
:101400000A0B0C0D0E0F101001020000001002401C
:1014100000127A0000093D002DE9F84F040070D059
:101420002078C04DC00749D06868C0F3810001280A
:1014300007D06868C0F38100022809D16868C0033A
:1014400006D52868800339D560680028E7D035E0E4
:101450006068B0F5803F0BD010B1B0F5A02F11D06F
:10146000286820F480302860286820F4802002E07A
:10147000286840F480302860606890B1FFF7A6FCCF
:1014800006460AE0286840F480202860F0E700BFA4
:10149000FFF79CFC801B642873D828688003F7D56D
:1014A0000CE0FFF793FC064605E000BFFFF78EFC5B
:1014B000801B6428F0D828688003F7D420789A4EDF
:1014C00080074FF001094FF0000839D5686810F027
:1014D0000C0F07D06868C0F38100022809D1686842
:1014E000C00306D42868800714D52069012808D1D4
:1014F00010E02069B0B1C6F80090FFF767FC07461E
:1015000005E00AE1FFF762FCC01B0228C4D8286886
:101510008007F7D52868616920F0F80040EAC1002B
:1015200028600DE0C6F80080FFF750FC074604E095
:10153000FFF74CFCC01B022823D828688007F7D48B
:10154000207800072CD57948A169D9B1C0F800905E
:10155000FFF73CFC074604E0FFF738FCC01B0228FD
:101560000FD8686A8007F7D571484FF4FA510068C0
:10157000B0FBF1F0009000BF0098411E0091FAD23C
:101580000EE080E0C0F80080FFF720FC074604E092
:10159000FFF71CFCC01B022875D8686A8007F7D4C7
:1015A0002078400760D5E8690027C00008D4E869C2
:1015B00040F08050E861E869012700F08050009019
:1015C0005C480168C90513D40168834641F4807101
:1015D0000160FFF7FBFB824606E000BFFFF7F6FB6A
:1015E000A0EB0A0064284ED8DBF80000C005F5D552
:1015F000E06801280AD008B1052813D0286A20F035
:1016000001002862286A20F0040002E0286A40F005
:1016100001002862E06841F2883B98B1FFF7D6FBF1
:1016200082460BE0286A40F004002862EEE700BF23
:10163000FFF7CCFBA0EB0A0159455AD8286A80076E
:10164000F6D50CE0FFF7C2FB824605E0FFF7BEFBD4
:10165000A0EB0A0159454CD8286A8007F6D41FB17F
:10166000E86920F08050E861E06988B36968C1F3F7
:101670008101022944D00228C6F8608004D0FFF717
:10168000A5FB044638E034E0FFF7A0FB074604E082
:10169000FFF79CFBC01B02282BD828688001F7D4D9
:1016A000206AB0F5803F05D16868A16820F4003059
:1016B00008436860D4E908010843696821F474119B
:1016C00008436860C6F86090FFF780FB044606E0B8
:1016D00025E000BFFFF77AFB001B022809D8286825
:1016E0008001F7D51BE000BFFFF770FB001B02284D
:1016F00002D90320BDE8F88F28688001F4D40EE0F9
:101700000128F7D06868226A00F48031914204D140
:10171000616A00F47010884201D00120EAE70020DD
:10172000E8E700000010024000004242800442420C
:10173000540000200070004010B5401EB0F1807FC2
:1017400001D3012010BD4FF0E02460610F2160172C
:1017500000F03AFF0020A06107202061002010BDAA
:101760007047704770B590F83C20012A19D00124C9
:1017700000F83C4F0222427050F83C3C5A689D6889
:1017800022F070060A684968324325F08005294333
:101790005A6050F83C2C916044700021017008465A
:1017A00070BD022070BD10B5040003D094F83D0058
:1017B00010B107E0012010BD002084F83C00204655
:1017C00000F00CF8022084F83D00211D206800F094
:1017D0007FFD012084F83D00002010BD08B50068A1
:1017E0000B49884212D10B48C16941F00401C16123
:1017F000C069002200F00400009011461E20FFF78F
:10180000EDFCBDE808401E20FFF7DABC08BD000073
:1018100000080040001002400168CA6842F001025E
:10182000CA600068816801F00701062903D00168D9
:1018300041F0010101600020704770B5044690F846
:101840003C00012817D0012584F83C50022084F880
:101850003D002068826822F0770222F47F42826095
:101860000868502830D00DDC20284DD005DC98B316
:1018700010283BD148E0022070BD302844D04028D9
:1018800034D139E0602828D0702806D0B0F5805FC8
:101890002CD0B0F5005F29D10AE0CB68D1E9012155
:1018A000206800F04BFD2068816841F0770109E075
:1018B000CB68D1E90121206800F040FD20688168F3
:1018C00041F48041816011E0CA684968206800F0F5
:1018D00047FD5021206807E016E0CA684968206883
:1018E00000F04FFD6021206800F032FD84F83D508B
:1018F000002084F83C0070BDCA684968206800F088
:101900002FFD40212068EFE7226801461046EBE7F3
:10191000704770B50446006801694FF00005C9437F
:10192000890715D4C168C943890711D4E91E01612B
:1019300001202077206880698007204602D0FFF7C9
:10194000E7FF04E000F098F8204600F096F82577CD
:1019500020680169C943490717D4C168C9434907C9
:1019600013D46FF0040101610220207720688069A0
:1019700010F4407F204602D0FFF7CAFF04E000F0D9
:101980007BF8204600F079F8257720680169C94383
:10199000090716D4C168C943090712D46FF00801BA
:1019A0000161042020772068C0698007204602D0AA
:1019B000FFF7AEFF04E000F05FF8204600F05DF8AE
:1019C000257720680169C943C90617D4C168C9438E
:1019D000C90613D46FF01001016108202077206838
:1019E000C06910F4407F204602D0FFF791FF04E069
:1019F00000F042F8204600F040F8257720680169A1
:101A0000C943C90708D1C168C943C90704D1891EA0
:101A10000161204600F032F820680169C9430906D7
:101A200009D4C168C943090605D46FF0800101617A
:101A30002046FFF795FE20680169C943490609D48D
:101A4000C168C943490605D46FF0400101612046D1
:101A500000F028F820680169C94389060BD4C168E1
:101A6000C943890607D46FF0200101612046BDE813
:101A70007040FFF776BE70BD704770470168074839
:101A800042691268914207D1012141630449102241
:101A9000A1F1800000F0A8B970470000000000200C
:101AA000E00100207047704770B502680446106876
:101AB000D168536910F00F0F50D003F0010501F405
:101AC000907635435DD0C20705D0CA0503D5E26BD9
:101AD00042F00102E263420705D5DA0703D0E26B68
:101AE00042F00202E263820705D5DA0703D0E26B17
:101AF00042F00402E263020705D5DA0703D0E26B85
:101B000042F00802E263E26B002A33D0800604D57B
:101B1000880602D5204600F05CFC20684069E16B35
:101B2000C0F38010090700D428B3204600F043FC1E
:101B30002068416949061AD5416921F04001416197
:101B4000606BA0B11B494163606BFEF79BFF0028EF
:101B500010D0606B416BBDE870400847830610D51C
:101B60008B060ED52046BDE8704000F032BC204602
:101B7000FFF799FF70BD2046FFF795FF0020E06357
:101B800070BD030606D50B0604D52046BDE870409F
:101B900000F0C6BC4006F3D54806F1D5D168204612
:101BA00021F04001D160202184F8391000F03BF988
:101BB00070BD0000A723000870B5040004D094F89D
:101BC0003900002510B106E0012070BD84F83850BE
:101BD000204600F023F8242084F839002068C168EA
:101BE00021F40051C160204600F03EFC20680169EC
:101BF00021F4904101612068416921F02A0141618D
:101C00002068C16841F40051C160E563202084F878
:101C1000390084F83A00002070BD000070B586B02D
:101C2000002400940194029403942E4E03682E49DC
:101C3000022003222D4DB34226D18B6943F4804309
:101C40008B618B6903F4804304938B6943F0040335
:101C50008B618969039201F0040104910102CDE9CD
:101C6000001069462846FEF7B7FF2815CDE90004A5
:101C7000694628460294FEF7AFFF00221146252050
:101C8000FFF7ACFA252028E0194EB34227D1CB69E3
:101C900043F40033CB61CB6903F4003304938B69C5
:101CA00043F004038B618969039201F004010491FC
:101CB0000421CDE9001069462846FEF78DFF082073
:101CC000CDE90004694628460294FEF785FF00220C
:101CD00011462620FFF782FA2620FFF771FA06B098
:101CE00070BD0000003801400010024000080140B3
:101CF0000044004090F83A30202B22D1F9B1F2B1E3
:101D000090F83830012B1CD081628285C285002179
:101D1000C163222280F83A2080F838100168CA682E
:101D200042F48072CA6001684A6942F001024A6165
:101D30000068C16841F02001C160002070470120A7
:101D400070470220704700002DE9F0410546006809
:101D5000204900260127204C884213D1E01D01783C
:101D6000C01F3B29007829D00A2905D00D2903D0AE
:101D70001A4A1154401C207017490122C91D1848E5
:101D8000FFF7B8FF17492868884220D11248083069
:101D900000783B2816D00A2807D00D2805D00F4A16
:101DA00061780A325054491C6170BDE8F0410A491B
:101DB0000B48012208314038FFF79CBF2062267093
:101DC0006771D9E7607860626670A771EDE7BDE87A
:101DD000F081000000440040000000205C00002072
:101DE000A00100200038014090F83930202B18D194
:101DF000A9B1A2B190F83830012B12D001628284CF
:101E0000C2840021C163212280F8392080F8381073
:101E10000068C16841F08001C16000207047012066
:101E20007047022070477047FEE701684A69D24355
:101E300052050FD46FF480624A61002140F8301FD0
:101E4000202242738173026942F00402026101732D
:101E50000120704700207047F8B50446C06A1E464E
:101E60000D461746082807D0012805D010F5803FF9
:101E700002D0206B122804D12068016841F48071DF
:101E80000160134600224FF001112046009600F039
:101E90004DF808BB2069B0F5804F0ED006202168B0
:101EA00000EAD51040F0F000086133463A460B498D
:101EB000204600F06FF878B902E005F0FE0000E07F
:101EC000E8B221680861054933463A46891F204631
:101ED00000F060F8002800D00120F8BD08000100E3
:101EE00070B516460D4604460DE02046FFF79DFFEF
:101EF00008B1012070BD681C05D0FEF767FF801B8C
:101F0000A84207D835B120684069C0434007ECD4E7
:101F1000002070BD002044F8300F20216173A073B1
:101F2000216941F0200121612073E2E72DE9F047AA
:101F30001E4690460D460446C1F30747DDF8209043
:101F400008E0701C06D0FEF741FFA0EB0900B0428C
:101F50000FD876B12068012F18D0806925EA0000DB
:101F60000004000C14D000214145EAD00020BDE857
:101F7000F087002044F8300F20216173A07321699D
:101F800041F02001216120730120F0E74069E5E77D
:101F90000121E9E72DE9F0479A4691460E460446AD
:101FA00000254FF02008C1F3074725E0206840696D
:101FB000C043400514D42068016841F400710160F9
:101FC00021686FF480604861256384F83D8084F85F
:101FD0003E50206C40F00400206484F83C501FE028
:101FE000B9F1FF3F08D0FEF7F1FEA0EB0A01494529
:101FF0000CD8B9F1000F09D02068012F13D08069E7
:1020000026EA00000004000C0BD0CFE744F8305F54
:1020100084F80D80A573206940F0200020612573AD
:102020000120BDE8F0874069EAE770B516460D4625
:1020300004460DE02046FFF7F8FE08B1012070BD10
:10204000681C05D0FEF7C2FE801BA84207D835B138
:1020500020684069C0430006ECD4002070BD002019
:1020600044F8300F20216173A073216941F02001F1
:1020700021612073E2E7000030B585B000242448D8
:102080000094019402940394816941F020018161DC
:10209000816901F020010491816941F004018161AD
:1020A000816901F004010491816941F008018161B5
:1020B0008069184D00F0080004900022E2212846B3
:1020C000FEF77FFEE22000900120CDE9010402200E
:1020D000039069462846FEF77FFD032000900E48D6
:1020E000CDE9010469460D48FEF776FD0022114650
:1020F0000620FFF773F80620FFF762F8002211466A
:102100000720FFF76BF80720FFF75AF805B030BD3E
:10211000001002400008014000001110000C0140B6
:1021200010B586B0002412480094019402940394E0
:1021300004940E490594016048F69F41C0E90114DA
:102140004FF47A71C0E903148461FFF72CFB4FF45C
:102150008050009069460648FFF76FFB049404A97D
:1021600003480594FFF7FEFA06B010BD00080040D2
:1021700020010020FEE70000F8B5274D0022402195
:102180002846FEF71EFE002280212846FEF719FE93
:10219000224C0026A078C0B1012202212846FEF779
:1021A00010FE012220212846FEF70BFE4FF4FA70A4
:1021B000FEF7B4FC002202212846FEF702FE0022B0
:1021C00020212846FEF7FDFDA670E07850B10122DF
:1021D00040212846FEF7F5FD012280212846FEF722
:1021E000F0FDE6700D49207F4031642548700A46B5
:1021F000022390210A480095FEF7A8FE0749207E99
:1022000038310A4648700648022390215438009518
:10221000FEF79CFEF8BD0000000801400000002011
:10222000CC000020704770477047FEF771BF30B593
:102230008FB028216846FDF78CFF14210AA8FDF70E
:1022400088FF01210804CDE9001000240294022532
:102250000491CDE907504FF4E01009906846FFF76C
:10226000DBF80F20CDE90A056802CDE90C40022118
:102270000AA80E94FEF7E4FF0FB030BD0D480168C8
:1022800041F00101016041680B4A11404160016861
:102290000A4A11400160016821F48021016041680F
:1022A00021F4FE0141604FF41F0181600449C00325
:1022B00008607047001002400000FFF8FFFFF6FEC4
:1022C00008ED00E00148FFF724BB000020010020DA
:1022D000F0B50268164B174C174D4FF080479842E7
:1022E00005D0B84203D0A04201D0A84203D122F0C9
:1022F00070064A683243984205D0B84203D0A042E3
:1023000001D0A84203D122F44074CA6822434C6928
:1023100022F08002224302608A68C2620A688262F6
:10232000984201D10969016301214161F0BD0000BA
:10233000002C0140000400400008004010B58468F3
:1023400042EA032224F47F440A432243826010BD00
:10235000826822F070020A4342F0070181607047F0
:1023600010B5036A046A24F001040462846924F04D
:10237000F00444EA021423F00A020A438461026270
:1023800010BD10B5036A23F0100303628369046A69
:1023900023F4704343EA023224F0A00343EA01111C
:1023A0008261016210BD10B5406A0021C185C184FF
:1023B000FFF779FB10BD0168CA6822F49072CA6009
:1023C00001684A6922F001024A61202180F83A102E
:1023D000704710B590F83A10222901D0022010BDA4
:1023E0008168B1F5805F11D00169002901681FD0B3
:1023F000496801F07F03816A4A1C82620B70C18DBB
:10240000491E0904090CC18518D02BE00269816AB4
:10241000002A0268526805D0D2B20A80816A491C3B
:102420008162ECE7C2F308020A80816A891CF7E73F
:102430004A68816A4B1C83620A70E0E70168CA68D7
:1024400022F02002CA600168CA6822F48072CA6061
:1024500001684A6922F001024A61202180F83A109D
:10246000FFF772FC002010BD2DE9F0410446006822
:102470000169E26821F44051114301612169A068BA
:102480000843616908432168CA6841F20C639A43B2
:102490000243CA6020684169A26921F44071114376
:1024A00041611E49206864253226884202D1FEF728
:1024B0006DFF01E0FEF75AFF00EBC00101EB0011D8
:1024C00060686FF018078000B1FBF0F2B2FBF5F224
:1024D000B1FBF0F37A4303EB8202B1FBF0F306EBBE
:1024E0000212B2FBF5F2B3FBF5F302F0F00202EBDD
:1024F0000312B1FBF0F3B1FBF0F0B0FBF5F0784361
:1025000003EB800006EB0010B0FBF5F0216800F053
:102510000F0010448860BDE8F081000000380140E1
:1025200090F83910212901D0022070478168B1F557
:10253000805F016A0BD04A1C026202680978516010
:10254000C18C491E0904090CC1840ED017E009880A
:102550000268C1F30801516001690029016A02D0D3
:10256000491C0162ECE7891CFBE70168CA6822F09C
:102570008002CA600068C16841F04001C16000206B
:10258000704700000148FFF78FBA0000600100208B
:102590000148FFF789BA0000A0010020FEE7000013
:1025A0000FB4084B10B504A902AA039800F0A0F8D4
:1025B000044602A9002000F045F9204610BC5DF851
:1025C00014FB0000452800080907090E002804DB59
:1025D00000F1E02080F80014704700F00F0000F1D7
:1025E000E02080F8141D704710B50446D1E90001C1
:1025F00000F002F8206010BDF8B504460D466A46AA
:1026000000F074F900987E30009000281EDC002253
:10261000134620462946FDF795FF17D0002140F6C6
:102620000800FEF705FA064620462946FDF72DFE6E
:10263000044640F6080006EA0001FEF7F9F934F016
:10264000004004BF022000F045F829E00098FF2870
:1026500028DB00210846FEF7EBF900F440060022D3
:10266000134620462946FDF785FF8CBF002501252E
:10267000022000F02FF84FF0FF4446B1002D0CBFB0
:102680004FF400004FF48000B04218BF084C042102
:102690000846FEF7CDF9002D04BF84F00040F8BDD8
:1026A0002046F8BD20462946BDE8F840FDF7EDBDBF
:1026B000FFFF7F7F02E008C8121F08C1002AFAD17D
:1026C00070477047002001E001C1121F002AFBD1B2
:1026D0007047000001490860704700005800002062
:1026E00030380A2801D201207047002070470000CE
:1026F0002DE9FF4F89B09B460446002506E02528BA
:102700000BD05A460B999047641C6D1C207800280A
:10271000F5D10DB02846BDE8F08F0027B84601225C
:10272000474900E0074314F8013F203B02FA03F059
:102730000842F7D120782E2819D114F8010F47F05C
:1027400004072A280ED06FF02F022078A0F1300164
:1027500009290CD808EB880102EB410100EB0108C4
:10276000641CF2E70A98641C50F8048B0A902078E5
:102770000028CED0642808D0692806D075281ED03D
:102780005A460B9990476D1C58E00A994FF00A0978
:1027900001C90A91002802DA40422D2102E03905E0
:1027A00004D52B218DF82010012103E0F90704D076
:1027B0002021F7E78A4608AE0DE00021FAE70A99E2
:1027C0004FF00A0901C90A91F7E74946FDF779FD7B
:1027D000303106F8011D0028F7D1ADEB060000F1FD
:1027E0002009780701D44FF00108C84502DDA8EBA5
:1027F000090000E000208046002706E008A85A46AD
:10280000C05D0B9990476D1C7F1C5745F6DB04E0BB
:1028100030205A460B9990476D1CB8F10001A8F181
:102820000108F5DC05E016F8010B5A460B999047B4
:102830006D1CB9F10001A9F10109F4DC641C65E724
:10284000092801000A68531C0B601070704710B50E
:1028500002460078582806D0002000231946545C10
:10286000592C02D002E00120F7E70123491C0B2973
:10287000F5DB184010BD0000FEB50E4E05460020E9
:1028800058CE8DE858006B5C04462D2B01D10124F5
:10289000491C531A6E4606E06F5C56F823C0303F61
:1028A00007FB0C00491C5B1E9142F5DB002C00D09D
:1028B0004042FEBDD82B00087CB50024455C234671
:1028C0002D2D01D10124491C6D4602E0465CEE54D9
:1028D000491C9142FADB0021284600F073F90CB143
:1028E00080F00040BDE87C40FDF7B6BC10B5144652
:1028F00000222260114A21F000439342A8BF10BD7C
:1029000053EA000208BF10BDB3F5801FA8BF2268BC
:1029100007DA3622FDF7FEFD6FF0350221F00043A5
:102920002260DFF81CC06FF31E510CEB23531A44D6
:1029300041F0FF5141F00051226010BD0000F07FD6
:1029400002FCFFFF1CB5FEF7EBFBFFF770FCFFF787
:1029500093FB45484349454D00240160C0E90154BB
:102960000E14C0E9034644618461C4610462FEF749
:1029700033FA3D483E4954300160C0E90154C0E992
:10298000034644618461C4610462FEF725FA364857
:102990003849E8304FF4E1350160C0E901540C26B4
:1029A000C460C0E904468461C461FFF705F9334897
:1029B00031490160C0E90154C460C0E90446846142
:1029C000C461FFF7F9F8FFF7ABFB2D4D462005F189
:1029D00038012871FF20087050224A7008310870B1
:1029E0004A706869FEF718FF2448012205F10801C2
:1029F0004038FFF77FF90122E91D2048FFF77AF9F7
:102A00006879A0B118481C38FFF721FF70B1642025
:102A1000FEF784F8144801AA69461C3800F086F8CD
:102A2000DDE9000100F02EF8FFF7A6FB6C71A87934
:102A30000028E5D06420FEF771F8114A0A482C32CC
:102A4000111F123800F09AF8E86AFDF705FC0646F7
:102A5000A86AFDF701FC314600F014F8FFF78CFB83
:102A6000AC71CDE70054004078000020A086010042
:102A7000005800400038014000440040A001002000
:102A80000000002070B5284A50EA01034FF000040E
:102A90000FD01546422646232D79002910DB002849
:102AA0000CDB814233DB422D06D000209070137185
:102AB0000FE0D461946170BD0120F7E700290FDCBD
:102AC00000280BDC884210DB462D05D000209070DA
:102AD00016719361D36170BD0120F8E7002911DB05
:102AE00000280DDC4042884202DDC2E9063470BD98
:102AF000422D03D000209070137110E00120FAE7FE
:102B00000029F4DC0028F2DB4942884202DDC2E9F8
:102B1000064370BD462D05D0002090701671D3611C
:102B2000936170BD0120F8E7000000202DE9F0411D
:102B300005460C460220904601466B5C592B00D19D
:102B40000A46491C0B29F8DB0146961C2846FFF76C
:102B500093FE094F2060314628463A6AFFF78CFE03
:102B6000C8F800002168642903D1642801D101203C
:102B7000F870BDE8F0810000000000202DE9F04170
:102B800005460F460220164601466B5C6C2B00D1B1
:102B90000A46491C0F29F8DB0146941C2846FFF71A
:102BA0008BFEFDF750FB386005482146426A2846F7
:102BB000FFF782FEFDF747FB3060BDE8F0810000C3
:102BC0000000002008B50A46002100910146684631
:102BD000FDF78DFB009808BD010000000A00000011
:102BE0006400000000000000000000000102030477
:102BF000060708090000000001020304DDDDDDDD39
:102C0000DCBBBBDDDDDDDDDDDDDDDDDD988888887D
:102C10008888888877777777778888888555555624
:102C2000666666666666666666688888833333327B
:102C300022222222222222222228888D5C2C000895
:102C4000000000205C000000B4260008B82C00083A
:102C50005C00002094050000C4260008000000006D
:102C6000460000000000000000000000000000001E
:102C70002001002000000000000000000000000013
:102C80000000000000000000000000000000000044
:102C90000000000000000000000000000000000034
:102CA0000000000001000000100000000000000013
:082CB0000024F4000000000004
:04000005080000ED02
:00000001FF
